:1000000076EF05F00000000000EF00F000000000B7
:0A0010000000000000000000F3D71C
:10001C00080E0001946F956B829A94531FE0800E2A
:10002C009315026E070E016E02C000F0015004E041
:10003C000032009EFF0FFBD700B002D0829A01D095
:10004C00828A8296956B080E955D03E20000952BD3
:10005C00FAD78286933793919407DFD7956B080E66
:0E006C00955D03E20000952BFAD782961200F4
:10007A0000018D6B8E6B8BC001F08CC002F08B4B34
:10008A008C2B01C0E9FF02C0EAFFEE50000A03E030
:10009A008D4B8E2BF0D78DC000F08EC001F0120070
:1000AA00490E00018B25E96E000E8C21EA6EEECF17
:1000BA008FF0EECF90F0010E8D5D04E38D510D08A7
:1000CA0001E301D07BD08BC0E9FF8CC0EAFFEECF01
:1000DA0001F0EECF02F0000E021802E1000E011844
:1000EA0011E0020E8B25E96E000E8C21EA6EEECF2E
:1000FA0001F0EECF02F0000E021802E1000E011824
:10010A0001E001D05BD08BC0E9FF8CC0EAFFEECFE3
:10011A0002F0EECF03F0040E8B25D96E000E8C216F
:10012A00DA6EDECF00F000C001F0010E006E015061
:10013A0004E000360090FF0FFBD7001E02C0E9FF63
:10014A0003C0EAFFEE50001602C0E1FF03C0E2FF5F
:10015A0000C0E6FF8F5190110BE08DC093F059DF7C
:10016A008EC093F056DF010E8F5F000E905BF2D7C0
:10017A008BC0E9FF8CC0EAFFEECF02F0EECF03F0AE
:10018A00040E8B25D96E000E8C21DA6EDECF00F0BC
:10019A0000C001F0010E006E015004E0003600902C
:1001AA00FF0FFBD702C0E9FF03C0EAFFEE500012BF
:0E01BA0002C0E1FF03C0E2FF00C0E6FF12003A
:1001C80000018F6B906B8BC0E1FF8CC0E2FF010ECA
:1001D800E66E000EE66E8DC0E9FF8EC0EAFFEECF38
:1001E80001F0EECF02F0000E006E0250005C02E15A
:1001F800015008086FE28DC0E9FF8EC0EAFFEECF1C
:1002080003F0EECF04F003C000F004C001F00132A7
:100218000032019E01320032019E01320032019EFD
:100228008BC0E1FF8CC0E2FF00C0E6FF01C0E6FF23
:100238008DC0E9FF8EC0EAFFEECF05F0EECF06F0E5
:100248008BC0E9FF8CC0EAFFEECF03F0EECF04F0DD
:1002580003C000F004C001F00036009001360036FB
:10026800009001360036009001360050055C026EA1
:1002780001500658036E02C08FF003C090F0000EC4
:10028800006E0350005C02E1025000081BE28BC0C4
:10029800E9FF8CC0EAFF010EEE24006E000EEE208E
:1002A800016E8BC0E1FF8CC0E2FF00C0E6FF01C019
:1002B800E6FF8DC0E1FF8EC0E2FF8FC0E6FF90C071
:1002C800E6FF08D08DC0E1FF8EC0E2FF080EE66EA3
:0602D800000EE66E1200AC
:1002DE000001916B926B8E51020802E18D51000864
:1002EE0001E27FD0490E8B25D96E000E8C21DA6E7D
:1002FE00DECF01F0DECF02F08E51025C02E18D51B5
:10030E00015C07E3000E8E5D02E1010E8D5D01E3DF
:10031E0001D067D0010E8F5D04E38F51080801E311
:10032E0001D05FD0060E8B25E96E000E8C21EA6E91
:10033E00EECF01F001B4901F060E8B25E96E000E74
:10034E008C21EA6EEECF01F001A212D0926B070E55
:10035E00925D0CE290AF02D0918F02D07F0E91177A
:10036E009133919F90379091922BF1D791C090F04D
:10037E00060E8B25E96E000E8C21EA6EEECF01F093
:10038E0001A003D08F5109088F6F8F05056E066A85
:10039E00000E065A010E8D5D036E000E8E59046E10
:1003AE0003C000F004C001F00036009001360036A4
:1003BE000090013600360090013600500524026E82
:1003CE0001500620036E070E8B25006E000E8C2149
:1003DE00016E02500024E16E03500120E26E90C0C7
:0403EE00E6FF120014
:1003F200200E00018B5D006E016A000E015A00C0E2
:1004020005F0200E8B5D04E38B517F0801E302D0DF
:100412005F0E056E030E046E05C000F0000E016E45
:10042200026E036E045007E0003600900136023679
:100432000336FF0FF8D7680E00260B0E0122000EBE
:040442000222120080
:1004460000017E05006E016A000E015A00C080F0B0
:10045600836B846B7CC081F07DC082F08137819193
:100466008237813781918237813781918237000EB9
:10047600781902E1000E771907E0000E7A1902E1F9
:10048600000E791901E001D0C5D075C0E1FF76C034
:10049600E2FF77C0E6FF78C0E6FF020E7525E16E43
:1004A600000E7621E26E79C0E6FF7AC0E6FF040E02
:1004B6007525E16E000E7621E26E070E7B15006E45
:1004C60000C0E6FF060E7525E16E000E7621E26E8F
:1004D600E66A490E7525E16E000E7621E26E7CC055
:1004E600E6FF7DC0E6FF050E7525E16E000E76215E
:1004F600E26E7FC0E6FF836B846B8251845D02E10E
:100506008151835D10E2070E7525006E000E76217F
:10051600016E83510024E16E84510120E26EE66A89
:10052600834B842BEAD7020E7525E96E000E7621E1
:10053600EA6EEECF02F0EECF03F0040E7525D96E0B
:10054600000E7621DA6EDECF00F000C001F0010E5B
:10055600006E015004E000360090FF0FFBD7001E2E
:1005660002C0E9FF03C0EAFFEE50001602C0E1FF39
:1005760003C0E2FF00C0E6FF9496949A75C0E9FFB7
:1005860076C0EAFFEECF02F0EECF03F0040E75253B
:10059600D96E000E7621DA6EDECF00F000C001F0D3
:1005A600010E006E015004E000360090FF0FFBD7ED
:1005B60002C0E9FF03C0EAFFEE50001202C0E1FFED
:1005C60003C0E2FF00C0E6FF8296829A75C08BF0F8
:1005D60076C08CF0090E8D6F7FC08EF063DD75C01E
:1005E6008BF076C08CF00A0E8D6F070E8E6F5ADD7B
:1005F60075C08BF076C08CF00B0E8D6F80C08EF0C0
:1006060051DD75C08BF076C08CF00C0E8D6F010E2F
:060616008E6F48DD1200AA
:10061C000001836B846B010E7B5D7D6F000E7C593A
:10062C007E6F77C08BF078C08CF021DD00C07FF03E
:10063C0001C080F000C081F001C082F0813781914F
:10064C0082378137819182378137819182377D5111
:10065C0081277E518223856B866B010E876F000E7E
:10066C00886F896B8A6B490E7525E96E000E7621B1
:10067C00EA6EEECF03F0EECF04F003C001F004C03D
:10068C0002F0013601900236013601900236013635
:10069C0001900236800E0218006E800E7C19005CF0
:1006AC0002E17B51015C0BE3800E8219006E800E1F
:1006BC00000A005C02E1010E815D01E301D02FD143
:1006CC00800E7E19006E800E005C02E1000E7D5DD6
:1006DC0054E27D510008016E7EC002F0000E0256FD
:1006EC0001C07DF002C07EF0010E7B6F000E7C6FAE
:1006FC00800E006E800E0218005C02E101500808AA
:10070C0027E27DC089F07EC08AF0870E8B6F000EC9
:10071C008C6F890E8D6F000E8E6F50DD89C07DF051
:10072C008AC07EF0070E8915016E8AC002F0000E99
:10073C000216000E021802E1000E011802E1874BAE
:10074C00882B7DC083F07D510708D8A0836B15D012
:10075C00000E7E1902E1080E7D1905E1020E876F6D
:10076C00000E886F04D0010E876F000E886F7DC05D
:10077C0083F07D510708D8A0836B8851805D02E11E
:10078C0087517F5D01E2CBD0832B010E875D006E1C
:10079C00000E8859016E0050772701507823490EBE
:1007AC007525E96E000E7621EA6EEECF03F0EECFE2
:1007BC0004F003C001F004C002F0013601900236CF
:1007CC000136019002360136019002368251025CEC
:1007DC0002E18151015C17E2490E7525E96E000EAC
:1007EC007621EA6EEECF01F0EECF02F001C081F07F
:1007FC0002C082F0813781918237813781918237B3
:10080C00813781918237010E876F000E886F010E40
:10081C007B5D856F000E7C59866F8251865D02E18F
:10082C008151855DD8B07BD0060E7525E96E000E22
:10083C007621EA6EEECF01F001A607D08551815DDD
:10084C00896F865182598A6F06D0010E8525896F72
:10085C00000E86218A6F8351080804E2010E836F13
:10086C00774B782B77C0E9FF78C0EAFFEECF8BF09F
:10087C00BADD83510808036E046A000E045A035053
:10088C000024F66E04500120F76E000E04BEFF0E1D
:10089C000220F86E0900F5CF84F0800E006E800EF9
:1008AC007A19005C02E1795100080DE2010E795DC4
:1008BC00006E000E7A59016E005004E08433849F60
:1008CC00FF0FFBD70AD079510008006E002A0050A8
:1008DC0004E084378491FF0FFBD7000E006E8A5121
:1008EC00005C02E18951080809E2870E8B6F000E4B
:1008FC008C6F890E8D6F000E8E6F60DC75C08BF067
:10090C0076C08CF087C08DF088C08EF089C08FF0D7
:10091C0084C090F0DEDC832B854B862B7ED71200B7
:10092C00000E0001745D02E1010E735D07E374516A
:10093C00020802E17351000801E301D016D06CC02B
:10094C0075F06DC076F06EC077F06FC078F070C047
:10095C0079F071C07AF072C07BF073C07CF074C017
:0C096C007DF0080E7E6F7F6B68DD1200CE
:100978000001706B716B726B490E6C25E96E000E8D
:100988006D21EA6EEECF6EF0EECF6FF0736B746B85
:10099800010E706F70510808D8A090D06CC0E9FFA4
:1009A8006DC0EAFFEECF02F0EECF03F0040E6C2527
:1009B800D96E000E6D21DA6EDECF00F000C001F0B6
:1009C800010E006E015004E000360090FF0FFBD7C7
:1009D800001E02C0E9FF03C0EAFFEE50001602C085
:1009E800E1FF03C0E2FF00C0E6FF6EC073F06FC016
:1009F80074F0000E006E7451005C02E1735100083F
:100A080035E27005716F726B000E725B010E735DDB
:100A1800036E000E7459046E03C000F004C001F0A8
:100A280000360090013600360090013600360090FE
:100A38000136005071270150722370C093F00EECFC
:100A480000F0070E6C25006E000E6D21016E7151CD
:100A58000024E96E72510120EA6EEECF93F00EEC9D
:100A680000F0010E735F000E745BC3D76CC0E9FF22
:100A78006DC0EAFFEECF02F0EECF03F0040E6C2556
:100A8800D96E000E6D21DA6EDECF00F000C001F0E5
:100A9800010E006E015004E000360090FF0FFBD7F6
:100AA80002C0E9FF03C0EAFFEE50001202C0E1FFF6
:0E0AB80003C0E2FF00C0E6FF702B6CD71200F7
:100AC6006CC075F06DC076F06EC077F06FC078F0D0
:100AD600010E0001796F000E7A6F70C07BF071C055
:060AE6007CF099DD120016
:100AEC00150E00016C6F000E6D6F820E6E6F0F0E87
:100AFC006F6F940E706F0F0E716F726B080E736FB9
:100B0C00000E746F0DDF150E6C6F000E6D6F4C0EBA
:100B1C00606F650E616F640E626F440E636F690ED9
:100B2C00646F730E656F700E666F6C0E676F610E7F
:100B3C00686F790E696F200E6A6F6B6B600E6E6F4B
:100B4C00000E6F6FFE0E706FFF0E716FB6DF150E1D
:0C0B5C006C6F000E6D6F0ADFD6D7FFD75C
:100B6800000000000000000000000060FAFA6000C9
:100B78000000E0E000E0E0000028FEFE28FEFE287D
:100B880000485CD6D674240000466630180C6662AD
:100B980000125EECBAF25E0C000000C0E02000001B
:100BA800000082C67C3800000000387CC682000045
:100BB80010547C38387C54100010107C7C101000C5
:100BC80000000006070100000010101010101000AF
:100BD80000000006060000000080C06030180C0607
:100BE800007CFEB29A8EFE7C000202FEFE420200EB
:100BF8000062F2929ACE4600006CFE9292C64400C1
:100C08000008FEFEC8683818009CBEA2A2E6E400F0
:100C1800000C9E92D27E3C0000E0F09E8E80800008
:100C2800006CFE9292FE6C000078FC9692F26000D6
:100C38000000006666000000000000666701000012
:100C4800000082C66C3810000024242424242400C8
:100C5800000010386CC682000060F09A8AC040001C
:100C68000078F8BABA82FE7C003E7EC8C87E3E0094
:100C7800006CFE9292FEFE000044C68282C67C385A
:100C880000387CC682FEFE000082829292FEFE0040
:100C98000080809090FEFE00004ECE8A82C67C388E
:100CA80000FEFE1010FEFE00000000FEFE00000028
:100CB80000FCFE02020E0C0000C6EE3810FEFE001C
:100CC8000002020202FEFE0000FEFE703870FEFE08
:100CD80000FEFE183060FEFE007CFE8282FE7C0074
:100CE8000060F09090FEFE00007AFE8E84FC780092
:100CF8000066FE9890FEFE00004CCE9AB2F66400A4
:100D0800008080FEFE80800000FEFE0202FEFC00E5
:100D180000F8FC0606FCF80000FEFE0C180CFEFEAF
:100D280000C6EE3838EEC60000E0F01E1EF0E00007
:100D380000C2E2B29A8E868200008282FEFE000025
:100D480000060C183060C0800000FEFE82820000A1
:100D580000103060C0603010000101010101010184
:100D680000000020E0C00000001E3C2A2A2E0400DB
:100D7800000C1E1212FCFE0000143622223E1C003B
:100D880000FEFC12121E0C0000183A2A2A3E1C0013
:100D98000040C090FE7E1000003E1F25253D180033
:100DA800001E3E2010FEFE00000000BEBE00000037
:100DB80000BEBF01010706000022361C08FEFE0027
:100DC800000000FEFE0000001E3E301C3C303E3E8F
:100DD800001E3E20203E3E00001C3E22223E1C00FB
:100DE80000183C24241F3F00003F1F24243C180007
:100DF80000103020301E3E0000242E2A2A3A12000D
:100E080000002422FEFC2000003E3C02023E3C0082
:100E180000383C06063C3800003C3E0E1C0E3E3CAA
:100E28000022361C081C3622003E3F05053D3800CE
:100E38000022323A2E262200008282EE7C10100018
:100E4800000000EEEE0000000010107CEE82820030
:100E58000080C040C080C040FFFFFFFFFFFFFFFFD2
:020000040030CA
:0E0000001D157F7CFF8991FF0FC00FE00F40A0
:00000001FF
